{
  "_format": "hh-sol-artifact-1",
  "contractName": "Blog",
  "sourceName": "web3/contracts/Blog.sol",
  "abi": [
    {
      "inputs": [
        {
          "internalType": "string",
          "name": "_name",
          "type": "string"
        }
      ],
      "stateMutability": "nonpayable",
      "type": "constructor"
    },
    {
      "anonymous": false,
      "inputs": [
        {
          "indexed": false,
          "internalType": "uint256",
          "name": "id",
          "type": "uint256"
        },
        {
          "indexed": false,
          "internalType": "string",
          "name": "title",
          "type": "string"
        },
        {
          "indexed": false,
          "internalType": "string",
          "name": "hash",
          "type": "string"
        }
      ],
      "name": "PostCreated",
      "type": "event"
    },
    {
      "anonymous": false,
      "inputs": [
        {
          "indexed": false,
          "internalType": "uint256",
          "name": "id",
          "type": "uint256"
        },
        {
          "indexed": false,
          "internalType": "string",
          "name": "title",
          "type": "string"
        },
        {
          "indexed": false,
          "internalType": "string",
          "name": "hash",
          "type": "string"
        },
        {
          "indexed": false,
          "internalType": "bool",
          "name": "published",
          "type": "bool"
        }
      ],
      "name": "PostUpdated",
      "type": "event"
    },
    {
      "inputs": [
        {
          "internalType": "string",
          "name": "_title",
          "type": "string"
        },
        {
          "internalType": "string",
          "name": "_hash",
          "type": "string"
        }
      ],
      "name": "createPost",
      "outputs": [],
      "stateMutability": "nonpayable",
      "type": "function"
    },
    {
      "inputs": [
        {
          "internalType": "string",
          "name": "_hash",
          "type": "string"
        }
      ],
      "name": "fetchPost",
      "outputs": [
        {
          "components": [
            {
              "internalType": "uint256",
              "name": "id",
              "type": "uint256"
            },
            {
              "internalType": "string",
              "name": "title",
              "type": "string"
            },
            {
              "internalType": "string",
              "name": "content",
              "type": "string"
            },
            {
              "internalType": "bool",
              "name": "published",
              "type": "bool"
            }
          ],
          "internalType": "struct Blog.Post",
          "name": "",
          "type": "tuple"
        }
      ],
      "stateMutability": "view",
      "type": "function"
    },
    {
      "inputs": [],
      "name": "fetchPosts",
      "outputs": [
        {
          "components": [
            {
              "internalType": "uint256",
              "name": "id",
              "type": "uint256"
            },
            {
              "internalType": "string",
              "name": "title",
              "type": "string"
            },
            {
              "internalType": "string",
              "name": "content",
              "type": "string"
            },
            {
              "internalType": "bool",
              "name": "published",
              "type": "bool"
            }
          ],
          "internalType": "struct Blog.Post[]",
          "name": "",
          "type": "tuple[]"
        }
      ],
      "stateMutability": "view",
      "type": "function"
    },
    {
      "inputs": [],
      "name": "name",
      "outputs": [
        {
          "internalType": "string",
          "name": "",
          "type": "string"
        }
      ],
      "stateMutability": "view",
      "type": "function"
    },
    {
      "inputs": [],
      "name": "owner",
      "outputs": [
        {
          "internalType": "address",
          "name": "",
          "type": "address"
        }
      ],
      "stateMutability": "view",
      "type": "function"
    },
    {
      "inputs": [
        {
          "internalType": "address",
          "name": "_owner",
          "type": "address"
        }
      ],
      "name": "transferOwnership",
      "outputs": [],
      "stateMutability": "nonpayable",
      "type": "function"
    },
    {
      "inputs": [
        {
          "internalType": "string",
          "name": "_name",
          "type": "string"
        }
      ],
      "name": "updateName",
      "outputs": [],
      "stateMutability": "nonpayable",
      "type": "function"
    },
    {
      "inputs": [
        {
          "internalType": "uint256",
          "name": "_postId",
          "type": "uint256"
        },
        {
          "internalType": "string",
          "name": "_title",
          "type": "string"
        },
        {
          "internalType": "string",
          "name": "_hash",
          "type": "string"
        },
        {
          "internalType": "bool",
          "name": "_published",
          "type": "bool"
        }
      ],
      "name": "updatePost",
      "outputs": [],
      "stateMutability": "nonpayable",
      "type": "function"
    }
  ],
  "bytecode": "0x60806040523480156200001157600080fd5b50604051620010d8380380620010d8833981016040819052620000349162000109565b80516200004990600090602084019062000063565b5050600180546001600160a01b0319163317905562000232565b8280546200007190620001df565b90600052602060002090601f016020900481019282620000955760008555620000e0565b82601f10620000b057805160ff1916838001178555620000e0565b82800160010185558215620000e0579182015b82811115620000e0578251825591602001919060010190620000c3565b50620000ee929150620000f2565b5090565b5b80821115620000ee5760008155600101620000f3565b600060208083850312156200011c578182fd5b82516001600160401b038082111562000133578384fd5b818501915085601f83011262000147578384fd5b8151818111156200015c576200015c6200021c565b604051601f8201601f19908116603f011681019083821181831017156200018757620001876200021c565b8160405282815288868487010111156200019f578687fd5b8693505b82841015620001c25784840186015181850187015292850192620001a3565b82841115620001d357868684830101525b98975050505050505050565b600181811c90821680620001f457607f821691505b602082108114156200021657634e487b7160e01b600052602260045260246000fd5b50919050565b634e487b7160e01b600052604160045260246000fd5b610e9680620002426000396000f3fe608060405234801561001057600080fd5b50600436106100885760003560e01c80638da5cb5b1161005b5780638da5cb5b146100f3578063abaddd7f1461011e578063cd349fe914610133578063f2fde38b1461014657600080fd5b806306fdde031461008d578063392338f5146100ab57806344828659146100c057806384da92a7146100e0575b600080fd5b610095610159565b6040516100a29190610cfc565b60405180910390f35b6100be6100b9366004610b20565b6101e7565b005b6100d36100ce366004610ae5565b61032a565b6040516100a29190610d0f565b6100be6100ee366004610ae5565b6104c5565b600154610106906001600160a01b031681565b6040516001600160a01b0390911681526020016100a2565b6101266104dc565b6040516100a29190610c9b565b6100be610141366004610b81565b610749565b6100be610154366004610ab7565b6108e3565b6000805461016690610dde565b80601f016020809104026020016040519081016040528092919081815260200182805461019290610dde565b80156101df5780601f106101b4576101008083540402835291602001916101df565b820191906000526020600020905b8154815290600101906020018083116101c257829003601f168201915b505050505081565b6001546001600160a01b031633146101fe57600080fd5b61020c600280546001019055565b600061021760025490565b60008181526003602090815260409091208281558551929350916102439160018401919087019061091c565b5060038101805460ff191660011790558251610268906002830190602086019061091c565b508060048460405161027a9190610c7f565b9081526040519081900360200190208154815560018083018054918301916102a190610dde565b6102ac9291906109a0565b5060028201816002019080546102c190610dde565b6102cc9291906109a0565b506003918201549101805460ff191660ff90921615159190911790556040517fe6851f0b99a9d86e5d68a97f65218980851216ce297f789c6b6b7e82ca1d90c89061031c90849087908790610d22565b60405180910390a150505050565b61035760405180608001604052806000815260200160608152602001606081526020016000151581525090565b6004826040516103679190610c7f565b90815260200160405180910390206040518060800160405290816000820154815260200160018201805461039a90610dde565b80601f01602080910402602001604051908101604052809291908181526020018280546103c690610dde565b80156104135780601f106103e857610100808354040283529160200191610413565b820191906000526020600020905b8154815290600101906020018083116103f657829003601f168201915b5050505050815260200160028201805461042c90610dde565b80601f016020809104026020016040519081016040528092919081815260200182805461045890610dde565b80156104a55780601f1061047a576101008083540402835291602001916104a5565b820191906000526020600020905b81548152906001019060200180831161048857829003601f168201915b50505091835250506003919091015460ff16151560209091015292915050565b80516104d890600090602084019061091c565b5050565b606060006104e960025490565b90506000808267ffffffffffffffff81111561051557634e487b7160e01b600052604160045260246000fd5b60405190808252806020026020018201604052801561057357816020015b61056060405180608001604052806000815260200160608152602001606081526020016000151581525090565b8152602001906001900390816105335790505b50905060005b8381101561074157600061058e826001610d96565b9050600060036000838152602001908152602001600020905080604051806080016040529081600082015481526020016001820180546105cd90610dde565b80601f01602080910402602001604051908101604052809291908181526020018280546105f990610dde565b80156106465780601f1061061b57610100808354040283529160200191610646565b820191906000526020600020905b81548152906001019060200180831161062957829003601f168201915b5050505050815260200160028201805461065f90610dde565b80601f016020809104026020016040519081016040528092919081815260200182805461068b90610dde565b80156106d85780601f106106ad576101008083540402835291602001916106d8565b820191906000526020600020905b8154815290600101906020018083116106bb57829003601f168201915b50505091835250506003919091015460ff161515602090910152845185908790811061071457634e487b7160e01b600052603260045260246000fd5b602090810291909101015261072a600186610d96565b94505050808061073990610e19565b915050610579565b509392505050565b6001546001600160a01b0316331461076057600080fd5b60008481526003602090815260409091208451909161078691600184019187019061091c565b5060038101805460ff191683151517905582516107ac906002830190602086019061091c565b5060008581526003602052604090208154815560018083018054849392830191906107d690610dde565b6107e19291906109a0565b5060028201816002019080546107f690610dde565b6108019291906109a0565b506003918201549101805460ff191660ff90921615159190911790556040518190600490610830908690610c7f565b90815260405190819003602001902081548155600180830180549183019161085790610dde565b6108629291906109a0565b50600282018160020190805461087790610dde565b6108829291906109a0565b506003918201549101805460ff191660ff909216151591909117905580546040517f9f8eb93fc073102bbd3072664634ab200707a4f11d94aace9cc8d0e4d019eff5916108d491879087908790610d57565b60405180910390a15050505050565b6001546001600160a01b031633146108fa57600080fd5b600180546001600160a01b0319166001600160a01b0392909216919091179055565b82805461092890610dde565b90600052602060002090601f01602090048101928261094a5760008555610990565b82601f1061096357805160ff1916838001178555610990565b82800160010185558215610990579182015b82811115610990578251825591602001919060010190610975565b5061099c929150610a1b565b5090565b8280546109ac90610dde565b90600052602060002090601f0160209004810192826109ce5760008555610990565b82601f106109df5780548555610990565b8280016001018555821561099057600052602060002091601f016020900482015b82811115610990578254825591600101919060010190610a00565b5b8082111561099c5760008155600101610a1c565b600082601f830112610a40578081fd5b813567ffffffffffffffff80821115610a5b57610a5b610e4a565b604051601f8301601f19908116603f01168101908282118183101715610a8357610a83610e4a565b81604052838152866020858801011115610a9b578485fd5b8360208701602083013792830160200193909352509392505050565b600060208284031215610ac8578081fd5b81356001600160a01b0381168114610ade578182fd5b9392505050565b600060208284031215610af6578081fd5b813567ffffffffffffffff811115610b0c578182fd5b610b1884828501610a30565b949350505050565b60008060408385031215610b32578081fd5b823567ffffffffffffffff80821115610b49578283fd5b610b5586838701610a30565b93506020850135915080821115610b6a578283fd5b50610b7785828601610a30565b9150509250929050565b60008060008060808587031215610b96578182fd5b84359350602085013567ffffffffffffffff80821115610bb4578384fd5b610bc088838901610a30565b94506040870135915080821115610bd5578384fd5b50610be287828801610a30565b92505060608501358015158114610bf7578182fd5b939692955090935050565b60008151808452610c1a816020860160208601610dae565b601f01601f19169290920160200192915050565b805182526000602082015160806020850152610c4d6080850182610c02565b905060408301518482036040860152610c668282610c02565b9150506060830151151560608501528091505092915050565b60008251610c91818460208701610dae565b9190910192915050565b6000602080830181845280855180835260408601915060408160051b8701019250838701855b82811015610cef57603f19888603018452610cdd858351610c2e565b94509285019290850190600101610cc1565b5092979650505050505050565b602081526000610ade6020830184610c02565b602081526000610ade6020830184610c2e565b838152606060208201526000610d3b6060830185610c02565b8281036040840152610d4d8185610c02565b9695505050505050565b848152608060208201526000610d706080830186610c02565b8281036040840152610d828186610c02565b915050821515606083015295945050505050565b60008219821115610da957610da9610e34565b500190565b60005b83811015610dc9578181015183820152602001610db1565b83811115610dd8576000848401525b50505050565b600181811c90821680610df257607f821691505b60208210811415610e1357634e487b7160e01b600052602260045260246000fd5b50919050565b6000600019821415610e2d57610e2d610e34565b5060010190565b634e487b7160e01b600052601160045260246000fd5b634e487b7160e01b600052604160045260246000fdfea26469706673582212206c762fe063ff297bfebb67f9a13edae6928e67732f705ef54249a180e496079c64736f6c63430008040033",
  "linkReferences": {},
  "deployedLinkReferences": {}
}